{
  "_format": "hh-sol-artifact-1",
  "contractName": "Crowdfunding",
  "sourceName": "contracts/Crowdfunding.sol",
  "abi": [
    {
      "inputs": [
        {
          "internalType": "address",
          "name": "systemContractAddress",
          "type": "address"
        }
      ],
      "stateMutability": "nonpayable",
      "type": "constructor"
    },
    {
      "inputs": [
        {
          "internalType": "string",
          "name": "",
          "type": "string"
        }
      ],
      "name": "OnlySystemContract",
      "type": "error"
    },
    {
      "anonymous": false,
      "inputs": [
        {
          "indexed": false,
          "internalType": "uint8",
          "name": "id",
          "type": "uint8"
        }
      ],
      "name": "Claim",
      "type": "event"
    },
    {
      "anonymous": false,
      "inputs": [
        {
          "indexed": false,
          "internalType": "uint8",
          "name": "id",
          "type": "uint8"
        },
        {
          "indexed": true,
          "internalType": "address",
          "name": "admin",
          "type": "address"
        },
        {
          "indexed": false,
          "internalType": "string",
          "name": "name",
          "type": "string"
        },
        {
          "indexed": false,
          "internalType": "string",
          "name": "description",
          "type": "string"
        },
        {
          "indexed": false,
          "internalType": "uint64",
          "name": "amount_required",
          "type": "uint64"
        },
        {
          "indexed": false,
          "internalType": "string[]",
          "name": "tags",
          "type": "string[]"
        }
      ],
      "name": "Launch",
      "type": "event"
    },
    {
      "anonymous": false,
      "inputs": [
        {
          "indexed": true,
          "internalType": "uint8",
          "name": "id",
          "type": "uint8"
        },
        {
          "indexed": true,
          "internalType": "address",
          "name": "pledger",
          "type": "address"
        },
        {
          "indexed": false,
          "internalType": "uint64",
          "name": "amount",
          "type": "uint64"
        }
      ],
      "name": "Pledge",
      "type": "event"
    },
    {
      "anonymous": false,
      "inputs": [
        {
          "indexed": false,
          "internalType": "uint8",
          "name": "id",
          "type": "uint8"
        },
        {
          "indexed": true,
          "internalType": "address",
          "name": "pledger",
          "type": "address"
        },
        {
          "indexed": false,
          "internalType": "uint64",
          "name": "amount",
          "type": "uint64"
        }
      ],
      "name": "Refund",
      "type": "event"
    },
    {
      "anonymous": false,
      "inputs": [
        {
          "indexed": true,
          "internalType": "uint8",
          "name": "id",
          "type": "uint8"
        },
        {
          "indexed": true,
          "internalType": "address",
          "name": "pledger",
          "type": "address"
        },
        {
          "indexed": false,
          "internalType": "uint64",
          "name": "amount",
          "type": "uint64"
        }
      ],
      "name": "Unpledge",
      "type": "event"
    },
    {
      "anonymous": false,
      "inputs": [
        {
          "indexed": true,
          "internalType": "address",
          "name": "userAddress",
          "type": "address"
        },
        {
          "indexed": false,
          "internalType": "string",
          "name": "username",
          "type": "string"
        },
        {
          "indexed": false,
          "internalType": "string",
          "name": "email",
          "type": "string"
        },
        {
          "indexed": false,
          "internalType": "string",
          "name": "bio",
          "type": "string"
        },
        {
          "indexed": false,
          "internalType": "string[]",
          "name": "socialLinks",
          "type": "string[]"
        }
      ],
      "name": "UserProfileUpdated",
      "type": "event"
    },
    {
      "inputs": [],
      "name": "campaignCount",
      "outputs": [
        {
          "internalType": "uint8",
          "name": "",
          "type": "uint8"
        }
      ],
      "stateMutability": "view",
      "type": "function"
    },
    {
      "inputs": [
        {
          "internalType": "uint8",
          "name": "",
          "type": "uint8"
        }
      ],
      "name": "campaigns",
      "outputs": [
        {
          "internalType": "uint8",
          "name": "id",
          "type": "uint8"
        },
        {
          "internalType": "address payable",
          "name": "admin",
          "type": "address"
        },
        {
          "internalType": "string",
          "name": "name",
          "type": "string"
        },
        {
          "internalType": "uint64",
          "name": "amount_required",
          "type": "uint64"
        },
        {
          "internalType": "bool",
          "name": "donation_complete",
          "type": "bool"
        },
        {
          "internalType": "string",
          "name": "description",
          "type": "string"
        },
        {
          "internalType": "uint64",
          "name": "amount_donated",
          "type": "uint64"
        }
      ],
      "stateMutability": "view",
      "type": "function"
    },
    {
      "inputs": [
        {
          "internalType": "uint8",
          "name": "id",
          "type": "uint8"
        }
      ],
      "name": "claim",
      "outputs": [],
      "stateMutability": "nonpayable",
      "type": "function"
    },
    {
      "inputs": [
        {
          "internalType": "string",
          "name": "name",
          "type": "string"
        },
        {
          "internalType": "string",
          "name": "description",
          "type": "string"
        },
        {
          "internalType": "uint64",
          "name": "amount_required",
          "type": "uint64"
        },
        {
          "internalType": "string[]",
          "name": "tags",
          "type": "string[]"
        }
      ],
      "name": "create",
      "outputs": [],
      "stateMutability": "nonpayable",
      "type": "function"
    },
    {
      "inputs": [
        {
          "internalType": "uint8",
          "name": "id",
          "type": "uint8"
        }
      ],
      "name": "donate",
      "outputs": [],
      "stateMutability": "payable",
      "type": "function"
    },
    {
      "inputs": [],
      "name": "getAllCampaigns",
      "outputs": [
        {
          "components": [
            {
              "internalType": "uint8",
              "name": "id",
              "type": "uint8"
            },
            {
              "internalType": "address payable",
              "name": "admin",
              "type": "address"
            },
            {
              "internalType": "string",
              "name": "name",
              "type": "string"
            },
            {
              "internalType": "string[]",
              "name": "tags",
              "type": "string[]"
            },
            {
              "internalType": "uint64",
              "name": "amount_required",
              "type": "uint64"
            },
            {
              "internalType": "bool",
              "name": "donation_complete",
              "type": "bool"
            },
            {
              "internalType": "string",
              "name": "description",
              "type": "string"
            },
            {
              "internalType": "uint64",
              "name": "amount_donated",
              "type": "uint64"
            }
          ],
          "internalType": "struct Crowdfunding.Campaign[]",
          "name": "",
          "type": "tuple[]"
        }
      ],
      "stateMutability": "view",
      "type": "function"
    },
    {
      "inputs": [],
      "name": "getAllUsers",
      "outputs": [
        {
          "components": [
            {
              "internalType": "address",
              "name": "userAddress",
              "type": "address"
            },
            {
              "internalType": "string",
              "name": "username",
              "type": "string"
            },
            {
              "internalType": "string",
              "name": "email",
              "type": "string"
            },
            {
              "internalType": "string",
              "name": "bio",
              "type": "string"
            },
            {
              "internalType": "string[]",
              "name": "socialLinks",
              "type": "string[]"
            }
          ],
          "internalType": "struct Crowdfunding.UserProfile[]",
          "name": "",
          "type": "tuple[]"
        }
      ],
      "stateMutability": "view",
      "type": "function"
    },
    {
      "inputs": [
        {
          "internalType": "uint8",
          "name": "campaignId",
          "type": "uint8"
        }
      ],
      "name": "getCampaign",
      "outputs": [
        {
          "components": [
            {
              "internalType": "uint8",
              "name": "id",
              "type": "uint8"
            },
            {
              "internalType": "address payable",
              "name": "admin",
              "type": "address"
            },
            {
              "internalType": "string",
              "name": "name",
              "type": "string"
            },
            {
              "internalType": "string[]",
              "name": "tags",
              "type": "string[]"
            },
            {
              "internalType": "uint64",
              "name": "amount_required",
              "type": "uint64"
            },
            {
              "internalType": "bool",
              "name": "donation_complete",
              "type": "bool"
            },
            {
              "internalType": "string",
              "name": "description",
              "type": "string"
            },
            {
              "internalType": "uint64",
              "name": "amount_donated",
              "type": "uint64"
            }
          ],
          "internalType": "struct Crowdfunding.Campaign",
          "name": "",
          "type": "tuple"
        }
      ],
      "stateMutability": "view",
      "type": "function"
    },
    {
      "inputs": [
        {
          "internalType": "address",
          "name": "userAddress",
          "type": "address"
        }
      ],
      "name": "getUserProfile",
      "outputs": [
        {
          "components": [
            {
              "internalType": "address",
              "name": "userAddress",
              "type": "address"
            },
            {
              "internalType": "string",
              "name": "username",
              "type": "string"
            },
            {
              "internalType": "string",
              "name": "email",
              "type": "string"
            },
            {
              "internalType": "string",
              "name": "bio",
              "type": "string"
            },
            {
              "internalType": "string[]",
              "name": "socialLinks",
              "type": "string[]"
            }
          ],
          "internalType": "struct Crowdfunding.UserProfile",
          "name": "",
          "type": "tuple"
        }
      ],
      "stateMutability": "view",
      "type": "function"
    },
    {
      "inputs": [
        {
          "components": [
            {
              "internalType": "bytes",
              "name": "origin",
              "type": "bytes"
            },
            {
              "internalType": "address",
              "name": "sender",
              "type": "address"
            },
            {
              "internalType": "uint256",
              "name": "chainID",
              "type": "uint256"
            }
          ],
          "internalType": "struct zContext",
          "name": "context",
          "type": "tuple"
        },
        {
          "internalType": "address",
          "name": "zrc20",
          "type": "address"
        },
        {
          "internalType": "uint256",
          "name": "amount",
          "type": "uint256"
        },
        {
          "internalType": "bytes",
          "name": "message",
          "type": "bytes"
        }
      ],
      "name": "onCrossChainCall",
      "outputs": [],
      "stateMutability": "nonpayable",
      "type": "function"
    },
    {
      "inputs": [
        {
          "internalType": "uint8",
          "name": "",
          "type": "uint8"
        },
        {
          "internalType": "address",
          "name": "",
          "type": "address"
        }
      ],
      "name": "pledgedAmount",
      "outputs": [
        {
          "internalType": "uint64",
          "name": "",
          "type": "uint64"
        }
      ],
      "stateMutability": "view",
      "type": "function"
    },
    {
      "inputs": [],
      "name": "systemContract",
      "outputs": [
        {
          "internalType": "contract SystemContract",
          "name": "",
          "type": "address"
        }
      ],
      "stateMutability": "view",
      "type": "function"
    },
    {
      "inputs": [
        {
          "internalType": "string",
          "name": "username",
          "type": "string"
        },
        {
          "internalType": "string",
          "name": "email",
          "type": "string"
        },
        {
          "internalType": "string",
          "name": "bio",
          "type": "string"
        },
        {
          "internalType": "string[]",
          "name": "socialLinks",
          "type": "string[]"
        }
      ],
      "name": "updateUserProfile",
      "outputs": [],
      "stateMutability": "nonpayable",
      "type": "function"
    },
    {
      "inputs": [
        {
          "internalType": "uint256",
          "name": "",
          "type": "uint256"
        }
      ],
      "name": "userAddresses",
      "outputs": [
        {
          "internalType": "address",
          "name": "",
          "type": "address"
        }
      ],
      "stateMutability": "view",
      "type": "function"
    },
    {
      "inputs": [
        {
          "internalType": "address",
          "name": "",
          "type": "address"
        },
        {
          "internalType": "uint256",
          "name": "",
          "type": "uint256"
        }
      ],
      "name": "userCampaigns",
      "outputs": [
        {
          "internalType": "uint8",
          "name": "",
          "type": "uint8"
        }
      ],
      "stateMutability": "view",
      "type": "function"
    },
    {
      "inputs": [],
      "name": "userCount",
      "outputs": [
        {
          "internalType": "uint256",
          "name": "",
          "type": "uint256"
        }
      ],
      "stateMutability": "view",
      "type": "function"
    },
    {
      "inputs": [
        {
          "internalType": "address",
          "name": "",
          "type": "address"
        }
      ],
      "name": "userProfiles",
      "outputs": [
        {
          "internalType": "address",
          "name": "userAddress",
          "type": "address"
        },
        {
          "internalType": "string",
          "name": "username",
          "type": "string"
        },
        {
          "internalType": "string",
          "name": "email",
          "type": "string"
        },
        {
          "internalType": "string",
          "name": "bio",
          "type": "string"
        }
      ],
      "stateMutability": "view",
      "type": "function"
    }
  ],
  "bytecode": "0x60806040523480156200001157600080fd5b5060405162003c1738038062003c17833981810160405281019062000037919062000095565b806000806101000a81548173ffffffffffffffffffffffffffffffffffffffff021916908373ffffffffffffffffffffffffffffffffffffffff160217905550506200011a565b6000815190506200008f8162000100565b92915050565b600060208284031215620000ae57620000ad620000fb565b5b6000620000be848285016200007e565b91505092915050565b6000620000d482620000db565b9050919050565b600073ffffffffffffffffffffffffffffffffffffffff82169050919050565b600080fd5b6200010b81620000c7565b81146200011757600080fd5b50565b613aed806200012a6000396000f3fe6080604052600436106100fe5760003560e01c80639ba140c311610095578063bb88b76911610064578063bb88b76914610376578063de43156e146103a1578063e2842d79146103ca578063e5b0b36b146103f5578063f283f53414610411576100fe565b80639ba140c3146102a4578063a4bf1c06146102cd578063aec49e9014610310578063b115ef411461034d576100fe565b80637274e30d116100d15780637274e30d146101e857806386cdf6041461021357806395d4063f1461023e578063987ee15614610267576100fe565b806307973ccf1461010357806319ac74bd1461012e578063332d56d71461016b578063502c9bd5146101ab575b600080fd5b34801561010f57600080fd5b5061011861044e565b6040516101259190613373565b60405180910390f35b34801561013a57600080fd5b5061015560048036038101906101509190612790565b610454565b60405161016291906133a9565b60405180910390f35b34801561017757600080fd5b50610192600480360381019061018d9190612763565b610497565b6040516101a29493929190613155565b60405180910390f35b3480156101b757600080fd5b506101d260048036038101906101cd9190612a06565b61067f565b6040516101df919061313a565b60405180910390f35b3480156101f457600080fd5b506101fd6106be565b60405161020a91906133a9565b60405180910390f35b34801561021f57600080fd5b506102286106d1565b60405161023591906131af565b60405180910390f35b34801561024a57600080fd5b5061026560048036038101906102609190612a33565b610abc565b005b34801561027357600080fd5b5061028e60048036038101906102899190612763565b610d29565b60405161029b9190613351565b60405180910390f35b3480156102b057600080fd5b506102cb60048036038101906102c691906127d0565b611139565b005b3480156102d957600080fd5b506102f460048036038101906102ef9190612a33565b6113e0565b60405161030797969594939291906133c4565b60405180910390f35b34801561031c57600080fd5b5061033760048036038101906103329190612a60565b611594565b604051610344919061338e565b60405180910390f35b34801561035957600080fd5b50610374600480360381019061036f91906128a7565b6115ca565b005b34801561038257600080fd5b5061038b6118e0565b60405161039891906131f3565b60405180910390f35b3480156103ad57600080fd5b506103c860048036038101906103c39190612962565b611904565b005b3480156103d657600080fd5b506103df61199b565b6040516103ec91906131d1565b60405180910390f35b61040f600480360381019061040a9190612a33565b611daa565b005b34801561041d57600080fd5b5061043860048036038101906104339190612a33565b611fc4565b604051610445919061332f565b60405180910390f35b60035481565b6005602052816000526040600020818154811061047057600080fd5b9060005260206000209060209182820401919006915091509054906101000a900460ff1681565b60066020528060005260406000206000915090508060000160009054906101000a900473ffffffffffffffffffffffffffffffffffffffff16908060010180546104e090613779565b80601f016020809104026020016040519081016040528092919081815260200182805461050c90613779565b80156105595780601f1061052e57610100808354040283529160200191610559565b820191906000526020600020905b81548152906001019060200180831161053c57829003601f168201915b50505050509080600201805461056e90613779565b80601f016020809104026020016040519081016040528092919081815260200182805461059a90613779565b80156105e75780601f106105bc576101008083540402835291602001916105e7565b820191906000526020600020905b8154815290600101906020018083116105ca57829003601f168201915b5050505050908060030180546105fc90613779565b80601f016020809104026020016040519081016040528092919081815260200182805461062890613779565b80156106755780601f1061064a57610100808354040283529160200191610675565b820191906000526020600020905b81548152906001019060200180831161065857829003601f168201915b5050505050905084565b6007818154811061068f57600080fd5b906000526020600020016000915054906101000a900473ffffffffffffffffffffffffffffffffffffffff1681565b600260009054906101000a900460ff1681565b60606000600260009054906101000a900460ff1660ff1667ffffffffffffffff811115610701576107006138dc565b5b60405190808252806020026020018201604052801561073a57816020015b61072761234e565b81526020019060019003908161071f5790505b5090506000600190505b600260009054906101000a900460ff1660ff168160ff1611610ab457600160008260ff1660ff168152602001908152602001600020604051806101000160405290816000820160009054906101000a900460ff1660ff1660ff1681526020016000820160019054906101000a900473ffffffffffffffffffffffffffffffffffffffff1673ffffffffffffffffffffffffffffffffffffffff1673ffffffffffffffffffffffffffffffffffffffff16815260200160018201805461080890613779565b80601f016020809104026020016040519081016040528092919081815260200182805461083490613779565b80156108815780601f1061085657610100808354040283529160200191610881565b820191906000526020600020905b81548152906001019060200180831161086457829003601f168201915b5050505050815260200160028201805480602002602001604051908101604052809291908181526020016000905b8282101561095b5783829060005260206000200180546108ce90613779565b80601f01602080910402602001604051908101604052809291908181526020018280546108fa90613779565b80156109475780601f1061091c57610100808354040283529160200191610947565b820191906000526020600020905b81548152906001019060200180831161092a57829003601f168201915b5050505050815260200190600101906108af565b5050505081526020016003820160009054906101000a900467ffffffffffffffff1667ffffffffffffffff1667ffffffffffffffff1681526020016003820160089054906101000a900460ff161515151581526020016004820180546109c090613779565b80601f01602080910402602001604051908101604052809291908181526020018280546109ec90613779565b8015610a395780601f10610a0e57610100808354040283529160200191610a39565b820191906000526020600020905b815481529060010190602001808311610a1c57829003601f168201915b505050505081526020016005820160009054906101000a900467ffffffffffffffff1667ffffffffffffffff1667ffffffffffffffff168152505082600183610a829190613652565b60ff1681518110610a9657610a956138ad565b5b60200260200101819052508080610aac90613825565b915050610744565b508091505090565b6000600160008360ff1660ff16815260200190815260200160002090508060000160019054906101000a900473ffffffffffffffffffffffffffffffffffffffff1673ffffffffffffffffffffffffffffffffffffffff163373ffffffffffffffffffffffffffffffffffffffff1614610b6b576040517f08c379a0000000000000000000000000000000000000000000000000000000008152600401610b62906132cf565b60405180910390fd5b8060030160009054906101000a900467ffffffffffffffff1667ffffffffffffffff168160050160009054906101000a900467ffffffffffffffff1667ffffffffffffffff161015610bf2576040517f08c379a0000000000000000000000000000000000000000000000000000000008152600401610be9906132ef565b60405180910390fd5b8060030160089054906101000a900460ff1615610c44576040517f08c379a0000000000000000000000000000000000000000000000000000000008152600401610c3b9061330f565b60405180910390fd5b60018160030160086101000a81548160ff0219169083151502179055508060000160019054906101000a900473ffffffffffffffffffffffffffffffffffffffff1673ffffffffffffffffffffffffffffffffffffffff166108fc8260050160009054906101000a900467ffffffffffffffff1667ffffffffffffffff169081150290604051600060405180830381858888f19350505050158015610ced573d6000803e3d6000fd5b507f0ae175440cd9ac12279bbac2afc93724b141516f30c13b6b31f164441ef65cf282604051610d1d91906133a9565b60405180910390a15050565b610d316123c2565b600073ffffffffffffffffffffffffffffffffffffffff16600660008473ffffffffffffffffffffffffffffffffffffffff1673ffffffffffffffffffffffffffffffffffffffff16815260200190815260200160002060000160009054906101000a900473ffffffffffffffffffffffffffffffffffffffff1673ffffffffffffffffffffffffffffffffffffffff161415610e03576040517f08c379a0000000000000000000000000000000000000000000000000000000008152600401610dfa906132af565b60405180910390fd5b600660008373ffffffffffffffffffffffffffffffffffffffff1673ffffffffffffffffffffffffffffffffffffffff1681526020019081526020016000206040518060a00160405290816000820160009054906101000a900473ffffffffffffffffffffffffffffffffffffffff1673ffffffffffffffffffffffffffffffffffffffff1673ffffffffffffffffffffffffffffffffffffffff168152602001600182018054610eb390613779565b80601f0160208091040260200160405190810160405280929190818152602001828054610edf90613779565b8015610f2c5780601f10610f0157610100808354040283529160200191610f2c565b820191906000526020600020905b815481529060010190602001808311610f0f57829003601f168201915b50505050508152602001600282018054610f4590613779565b80601f0160208091040260200160405190810160405280929190818152602001828054610f7190613779565b8015610fbe5780601f10610f9357610100808354040283529160200191610fbe565b820191906000526020600020905b815481529060010190602001808311610fa157829003601f168201915b50505050508152602001600382018054610fd790613779565b80601f016020809104026020016040519081016040528092919081815260200182805461100390613779565b80156110505780601f1061102557610100808354040283529160200191611050565b820191906000526020600020905b81548152906001019060200180831161103357829003601f168201915b5050505050815260200160048201805480602002602001604051908101604052809291908181526020016000905b8282101561112a57838290600052602060002001805461109d90613779565b80601f01602080910402602001604051908101604052809291908181526020018280546110c990613779565b80156111165780601f106110eb57610100808354040283529160200191611116565b820191906000526020600020905b8154815290600101906020018083116110f957829003601f168201915b50505050508152602001906001019061107e565b50505050815250509050919050565b600073ffffffffffffffffffffffffffffffffffffffff16600660003373ffffffffffffffffffffffffffffffffffffffff1673ffffffffffffffffffffffffffffffffffffffff16815260200190815260200160002060000160009054906101000a900473ffffffffffffffffffffffffffffffffffffffff1673ffffffffffffffffffffffffffffffffffffffff16141561124c57600360008154809291906111e3906137dc565b91905055506007339080600181540180825580915050600190039060005260206000200160009091909190916101000a81548173ffffffffffffffffffffffffffffffffffffffff021916908373ffffffffffffffffffffffffffffffffffffffff1602179055505b6040518060a001604052803373ffffffffffffffffffffffffffffffffffffffff16815260200185815260200184815260200183815260200182815250600660003373ffffffffffffffffffffffffffffffffffffffff1673ffffffffffffffffffffffffffffffffffffffff16815260200190815260200160002060008201518160000160006101000a81548173ffffffffffffffffffffffffffffffffffffffff021916908373ffffffffffffffffffffffffffffffffffffffff160217905550602082015181600101908051906020019061132b929190612407565b506040820151816002019080519060200190611348929190612407565b506060820151816003019080519060200190611365929190612407565b50608082015181600401908051906020019061138292919061248d565b509050503373ffffffffffffffffffffffffffffffffffffffff167fd2d379fef672c44ae876146c66906d794451117c453c8730b34bd4369231c957858585856040516113d2949392919061320e565b60405180910390a250505050565b60016020528060005260406000206000915090508060000160009054906101000a900460ff16908060000160019054906101000a900473ffffffffffffffffffffffffffffffffffffffff169080600101805461143c90613779565b80601f016020809104026020016040519081016040528092919081815260200182805461146890613779565b80156114b55780601f1061148a576101008083540402835291602001916114b5565b820191906000526020600020905b81548152906001019060200180831161149857829003601f168201915b5050505050908060030160009054906101000a900467ffffffffffffffff16908060030160089054906101000a900460ff16908060040180546114f790613779565b80601f016020809104026020016040519081016040528092919081815260200182805461152390613779565b80156115705780601f1061154557610100808354040283529160200191611570565b820191906000526020600020905b81548152906001019060200180831161155357829003601f168201915b5050505050908060050160009054906101000a900467ffffffffffffffff16905087565b60046020528160005260406000206020528060005260406000206000915091509054906101000a900467ffffffffffffffff1681565b6002600081819054906101000a900460ff16809291906115e990613825565b91906101000a81548160ff021916908360ff16021790555050604051806101000160405280600260009054906101000a900460ff1660ff1681526020013373ffffffffffffffffffffffffffffffffffffffff1681526020018581526020018281526020018367ffffffffffffffff168152602001600015158152602001848152602001600067ffffffffffffffff1681525060016000600260009054906101000a900460ff1660ff1660ff16815260200190815260200160002060008201518160000160006101000a81548160ff021916908360ff16021790555060208201518160000160016101000a81548173ffffffffffffffffffffffffffffffffffffffff021916908373ffffffffffffffffffffffffffffffffffffffff1602179055506040820151816001019080519060200190611728929190612407565b50606082015181600201908051906020019061174592919061248d565b5060808201518160030160006101000a81548167ffffffffffffffff021916908367ffffffffffffffff16021790555060a08201518160030160086101000a81548160ff02191690831515021790555060c08201518160040190805190602001906117b1929190612407565b5060e08201518160050160006101000a81548167ffffffffffffffff021916908367ffffffffffffffff160217905550905050600560003373ffffffffffffffffffffffffffffffffffffffff1673ffffffffffffffffffffffffffffffffffffffff168152602001908152602001600020600260009054906101000a900460ff1690806001815401808255809150506001900390600052602060002090602091828204019190069091909190916101000a81548160ff021916908360ff1602179055503373ffffffffffffffffffffffffffffffffffffffff167f324b428da2a0f864b7a7777ab85ebb823e7c43a11b52ebd21411b7fe7d599a74600260009054906101000a900460ff16868686866040516118d2959493929190613441565b60405180910390a250505050565b60008054906101000a900473ffffffffffffffffffffffffffffffffffffffff1681565b60008054906101000a900473ffffffffffffffffffffffffffffffffffffffff168073ffffffffffffffffffffffffffffffffffffffff163373ffffffffffffffffffffffffffffffffffffffff1614611993576040517f14c6658d00000000000000000000000000000000000000000000000000000000815260040161198a9061328f565b60405180910390fd5b505050505050565b6060600060035467ffffffffffffffff8111156119bb576119ba6138dc565b5b6040519080825280602002602001820160405280156119f457816020015b6119e16123c2565b8152602001906001900390816119d95790505b50905060005b600354811015611da2576006600060078381548110611a1c57611a1b6138ad565b5b9060005260206000200160009054906101000a900473ffffffffffffffffffffffffffffffffffffffff1673ffffffffffffffffffffffffffffffffffffffff1673ffffffffffffffffffffffffffffffffffffffff1681526020019081526020016000206040518060a00160405290816000820160009054906101000a900473ffffffffffffffffffffffffffffffffffffffff1673ffffffffffffffffffffffffffffffffffffffff1673ffffffffffffffffffffffffffffffffffffffff168152602001600182018054611af290613779565b80601f0160208091040260200160405190810160405280929190818152602001828054611b1e90613779565b8015611b6b5780601f10611b4057610100808354040283529160200191611b6b565b820191906000526020600020905b815481529060010190602001808311611b4e57829003601f168201915b50505050508152602001600282018054611b8490613779565b80601f0160208091040260200160405190810160405280929190818152602001828054611bb090613779565b8015611bfd5780601f10611bd257610100808354040283529160200191611bfd565b820191906000526020600020905b815481529060010190602001808311611be057829003601f168201915b50505050508152602001600382018054611c1690613779565b80601f0160208091040260200160405190810160405280929190818152602001828054611c4290613779565b8015611c8f5780601f10611c6457610100808354040283529160200191611c8f565b820191906000526020600020905b815481529060010190602001808311611c7257829003601f168201915b5050505050815260200160048201805480602002602001604051908101604052809291908181526020016000905b82821015611d69578382906000526020600020018054611cdc90613779565b80601f0160208091040260200160405190810160405280929190818152602001828054611d0890613779565b8015611d555780601f10611d2a57610100808354040283529160200191611d55565b820191906000526020600020905b815481529060010190602001808311611d3857829003601f168201915b505050505081526020019060010190611cbd565b5050505081525050828281518110611d8457611d836138ad565b5b60200260200101819052508080611d9a906137dc565b9150506119fa565b508091505090565b6000600160008360ff1660ff16815260200190815260200160002090508060030160089054906101000a900460ff1615611e19576040517f08c379a0000000000000000000000000000000000000000000000000000000008152600401611e109061330f565b60405180910390fd5b348160050160008282829054906101000a900467ffffffffffffffff16611e409190613614565b92506101000a81548167ffffffffffffffff021916908367ffffffffffffffff16021790555034600460008460ff1660ff16815260200190815260200160002060003373ffffffffffffffffffffffffffffffffffffffff1673ffffffffffffffffffffffffffffffffffffffff16815260200190815260200160002060008282829054906101000a900467ffffffffffffffff16611edf9190613614565b92506101000a81548167ffffffffffffffff021916908367ffffffffffffffff1602179055503373ffffffffffffffffffffffffffffffffffffffff168260ff167f866ae46188416da4e475d4f889f9fc22044c7d5b62de840ca15b55fceeea848134604051611f4f919061338e565b60405180910390a38060030160009054906101000a900467ffffffffffffffff1667ffffffffffffffff168160050160009054906101000a900467ffffffffffffffff1667ffffffffffffffff1610611fc05760018160030160086101000a81548160ff0219169083151502179055505b5050565b611fcc61234e565b60008260ff16118015611ff45750600260009054906101000a900460ff1660ff168260ff1611155b612033576040517f08c379a000000000000000000000000000000000000000000000000000000000815260040161202a9061326f565b60405180910390fd5b600160008360ff1660ff168152602001908152602001600020604051806101000160405290816000820160009054906101000a900460ff1660ff1660ff1681526020016000820160019054906101000a900473ffffffffffffffffffffffffffffffffffffffff1673ffffffffffffffffffffffffffffffffffffffff1673ffffffffffffffffffffffffffffffffffffffff1681526020016001820180546120db90613779565b80601f016020809104026020016040519081016040528092919081815260200182805461210790613779565b80156121545780601f1061212957610100808354040283529160200191612154565b820191906000526020600020905b81548152906001019060200180831161213757829003601f168201915b5050505050815260200160028201805480602002602001604051908101604052809291908181526020016000905b8282101561222e5783829060005260206000200180546121a190613779565b80601f01602080910402602001604051908101604052809291908181526020018280546121cd90613779565b801561221a5780601f106121ef5761010080835404028352916020019161221a565b820191906000526020600020905b8154815290600101906020018083116121fd57829003601f168201915b505050505081526020019060010190612182565b5050505081526020016003820160009054906101000a900467ffffffffffffffff1667ffffffffffffffff1667ffffffffffffffff1681526020016003820160089054906101000a900460ff1615151515815260200160048201805461229390613779565b80601f01602080910402602001604051908101604052809291908181526020018280546122bf90613779565b801561230c5780601f106122e15761010080835404028352916020019161230c565b820191906000526020600020905b8154815290600101906020018083116122ef57829003601f168201915b505050505081526020016005820160009054906101000a900467ffffffffffffffff1667ffffffffffffffff1667ffffffffffffffff16815250509050919050565b604051806101000160405280600060ff168152602001600073ffffffffffffffffffffffffffffffffffffffff1681526020016060815260200160608152602001600067ffffffffffffffff16815260200160001515815260200160608152602001600067ffffffffffffffff1681525090565b6040518060a00160405280600073ffffffffffffffffffffffffffffffffffffffff168152602001606081526020016060815260200160608152602001606081525090565b82805461241390613779565b90600052602060002090601f016020900481019282612435576000855561247c565b82601f1061244e57805160ff191683800117855561247c565b8280016001018555821561247c579182015b8281111561247b578251825591602001919060010190612460565b5b50905061248991906124ed565b5090565b8280548282559060005260206000209081019282156124dc579160200282015b828111156124db5782518290805190602001906124cb929190612407565b50916020019190600101906124ad565b5b5090506124e9919061250a565b5090565b5b808211156125065760008160009055506001016124ee565b5090565b5b8082111561252a5760008181612521919061252e565b5060010161250b565b5090565b50805461253a90613779565b6000825580601f1061254c575061256b565b601f01602090049060005260206000209081019061256a91906124ed565b5b50565b600061258161257c846134ce565b6134a9565b905080838252602082019050828560208602820111156125a4576125a361391a565b5b60005b858110156125f257813567ffffffffffffffff8111156125ca576125c9613910565b5b8086016125d789826126d7565b855260208501945060208401935050506001810190506125a7565b5050509392505050565b600061260f61260a846134fa565b6134a9565b90508281526020810184848401111561262b5761262a61391f565b5b612636848285613737565b509392505050565b60008135905061264d81613a5b565b92915050565b600082601f83011261266857612667613910565b5b813561267884826020860161256e565b91505092915050565b60008083601f84011261269757612696613910565b5b8235905067ffffffffffffffff8111156126b4576126b361390b565b5b6020830191508360018202830111156126d0576126cf61391a565b5b9250929050565b600082601f8301126126ec576126eb613910565b5b81356126fc8482602086016125fc565b91505092915050565b60006060828403121561271b5761271a613915565b5b81905092915050565b60008135905061273381613a72565b92915050565b60008135905061274881613a89565b92915050565b60008135905061275d81613aa0565b92915050565b60006020828403121561277957612778613929565b5b60006127878482850161263e565b91505092915050565b600080604083850312156127a7576127a6613929565b5b60006127b58582860161263e565b92505060206127c685828601612724565b9150509250929050565b600080600080608085870312156127ea576127e9613929565b5b600085013567ffffffffffffffff81111561280857612807613924565b5b612814878288016126d7565b945050602085013567ffffffffffffffff81111561283557612834613924565b5b612841878288016126d7565b935050604085013567ffffffffffffffff81111561286257612861613924565b5b61286e878288016126d7565b925050606085013567ffffffffffffffff81111561288f5761288e613924565b5b61289b87828801612653565b91505092959194509250565b600080600080608085870312156128c1576128c0613929565b5b600085013567ffffffffffffffff8111156128df576128de613924565b5b6128eb878288016126d7565b945050602085013567ffffffffffffffff81111561290c5761290b613924565b5b612918878288016126d7565b935050604061292987828801612739565b925050606085013567ffffffffffffffff81111561294a57612949613924565b5b61295687828801612653565b91505092959194509250565b60008060008060006080868803121561297e5761297d613929565b5b600086013567ffffffffffffffff81111561299c5761299b613924565b5b6129a888828901612705565b95505060206129b98882890161263e565b94505060406129ca88828901612724565b935050606086013567ffffffffffffffff8111156129eb576129ea613924565b5b6129f788828901612681565b92509250509295509295909350565b600060208284031215612a1c57612a1b613929565b5b6000612a2a84828501612724565b91505092915050565b600060208284031215612a4957612a48613929565b5b6000612a578482850161274e565b91505092915050565b60008060408385031215612a7757612a76613929565b5b6000612a858582860161274e565b9250506020612a968582860161263e565b9150509250929050565b6000612aac8383612d19565b905092915050565b6000612ac08383612e5d565b905092915050565b6000612ad48383612fd9565b905092915050565b612ae581613698565b82525050565b612af481613698565b82525050565b612b0381613686565b82525050565b612b1281613686565b82525050565b6000612b238261355b565b612b2d81856135ae565b935083602082028501612b3f8561352b565b8060005b85811015612b7b5784840389528151612b5c8582612aa0565b9450612b6783613587565b925060208a01995050600181019050612b43565b50829750879550505050505092915050565b6000612b988261355b565b612ba281856135bf565b935083602082028501612bb48561352b565b8060005b85811015612bf05784840389528151612bd18582612aa0565b9450612bdc83613587565b925060208a01995050600181019050612bb8565b50829750879550505050505092915050565b6000612c0d82613566565b612c1781856135d0565b935083602082028501612c298561353b565b8060005b85811015612c655784840389528151612c468582612ab4565b9450612c5183613594565b925060208a01995050600181019050612c2d565b50829750879550505050505092915050565b6000612c8282613571565b612c8c81856135e1565b935083602082028501612c9e8561354b565b8060005b85811015612cda5784840389528151612cbb8582612ac8565b9450612cc6836135a1565b925060208a01995050600181019050612ca2565b50829750879550505050505092915050565b612cf5816136aa565b82525050565b612d04816136aa565b82525050565b612d1381613701565b82525050565b6000612d248261357c565b612d2e81856135f2565b9350612d3e818560208601613746565b612d478161392e565b840191505092915050565b6000612d5d8261357c565b612d678185613603565b9350612d77818560208601613746565b612d808161392e565b840191505092915050565b6000612d98601783613603565b9150612da38261393f565b602082019050919050565b6000612dbb602b83613603565b9150612dc682613968565b604082019050919050565b6000612dde601383613603565b9150612de9826139b7565b602082019050919050565b6000612e01600983613603565b9150612e0c826139e0565b602082019050919050565b6000612e24601283613603565b9150612e2f82613a09565b602082019050919050565b6000612e47601183613603565b9150612e5282613a32565b602082019050919050565b600061010083016000830151612e76600086018261311c565b506020830151612e896020860182612adc565b5060408301518482036040860152612ea18282612d19565b91505060608301518482036060860152612ebb8282612b18565b9150506080830151612ed060808601826130fe565b5060a0830151612ee360a0860182612cec565b5060c083015184820360c0860152612efb8282612d19565b91505060e0830151612f1060e08601826130fe565b508091505092915050565b600061010083016000830151612f34600086018261311c565b506020830151612f476020860182612adc565b5060408301518482036040860152612f5f8282612d19565b91505060608301518482036060860152612f798282612b18565b9150506080830151612f8e60808601826130fe565b5060a0830151612fa160a0860182612cec565b5060c083015184820360c0860152612fb98282612d19565b91505060e0830151612fce60e08601826130fe565b508091505092915050565b600060a083016000830151612ff16000860182612afa565b50602083015184820360208601526130098282612d19565b915050604083015184820360408601526130238282612d19565b9150506060830151848203606086015261303d8282612d19565b915050608083015184820360808601526130578282612b18565b9150508091505092915050565b600060a08301600083015161307c6000860182612afa565b50602083015184820360208601526130948282612d19565b915050604083015184820360408601526130ae8282612d19565b915050606083015184820360608601526130c88282612d19565b915050608083015184820360808601526130e28282612b18565b9150508091505092915050565b6130f8816136d6565b82525050565b613107816136e0565b82525050565b613116816136e0565b82525050565b613125816136f4565b82525050565b613134816136f4565b82525050565b600060208201905061314f6000830184612b09565b92915050565b600060808201905061316a6000830187612b09565b818103602083015261317c8186612d52565b905081810360408301526131908185612d52565b905081810360608301526131a48184612d52565b905095945050505050565b600060208201905081810360008301526131c98184612c02565b905092915050565b600060208201905081810360008301526131eb8184612c77565b905092915050565b60006020820190506132086000830184612d0a565b92915050565b600060808201905081810360008301526132288187612d52565b9050818103602083015261323c8186612d52565b905081810360408301526132508185612d52565b905081810360608301526132648184612b8d565b905095945050505050565b6000602082019050818103600083015261328881612d8b565b9050919050565b600060208201905081810360008301526132a881612dae565b9050919050565b600060208201905081810360008301526132c881612dd1565b9050919050565b600060208201905081810360008301526132e881612df4565b9050919050565b6000602082019050818103600083015261330881612e17565b9050919050565b6000602082019050818103600083015261332881612e3a565b9050919050565b600060208201905081810360008301526133498184612f1b565b905092915050565b6000602082019050818103600083015261336b8184613064565b905092915050565b600060208201905061338860008301846130ef565b92915050565b60006020820190506133a3600083018461310d565b92915050565b60006020820190506133be600083018461312b565b92915050565b600060e0820190506133d9600083018a61312b565b6133e66020830189612aeb565b81810360408301526133f88188612d52565b9050613407606083018761310d565b6134146080830186612cfb565b81810360a08301526134268185612d52565b905061343560c083018461310d565b98975050505050505050565b600060a082019050613456600083018861312b565b81810360208301526134688187612d52565b9050818103604083015261347c8186612d52565b905061348b606083018561310d565b818103608083015261349d8184612b8d565b90509695505050505050565b60006134b36134c4565b90506134bf82826137ab565b919050565b6000604051905090565b600067ffffffffffffffff8211156134e9576134e86138dc565b5b602082029050602081019050919050565b600067ffffffffffffffff821115613515576135146138dc565b5b61351e8261392e565b9050602081019050919050565b6000819050602082019050919050565b6000819050602082019050919050565b6000819050602082019050919050565b600081519050919050565b600081519050919050565b600081519050919050565b600081519050919050565b6000602082019050919050565b6000602082019050919050565b6000602082019050919050565b600082825260208201905092915050565b600082825260208201905092915050565b600082825260208201905092915050565b600082825260208201905092915050565b600082825260208201905092915050565b600082825260208201905092915050565b600061361f826136e0565b915061362a836136e0565b92508267ffffffffffffffff038211156136475761364661384f565b5b828201905092915050565b600061365d826136f4565b9150613668836136f4565b92508282101561367b5761367a61384f565b5b828203905092915050565b6000613691826136b6565b9050919050565b60006136a3826136b6565b9050919050565b60008115159050919050565b600073ffffffffffffffffffffffffffffffffffffffff82169050919050565b6000819050919050565b600067ffffffffffffffff82169050919050565b600060ff82169050919050565b600061370c82613713565b9050919050565b600061371e82613725565b9050919050565b6000613730826136b6565b9050919050565b82818337600083830152505050565b60005b83811015613764578082015181840152602081019050613749565b83811115613773576000848401525b50505050565b6000600282049050600182168061379157607f821691505b602082108114156137a5576137a461387e565b5b50919050565b6137b48261392e565b810181811067ffffffffffffffff821117156137d3576137d26138dc565b5b80604052505050565b60006137e7826136d6565b91507fffffffffffffffffffffffffffffffffffffffffffffffffffffffffffffffff82141561381a5761381961384f565b5b600182019050919050565b6000613830826136f4565b915060ff8214156138445761384361384f565b5b600182019050919050565b7f4e487b7100000000000000000000000000000000000000000000000000000000600052601160045260246000fd5b7f4e487b7100000000000000000000000000000000000000000000000000000000600052602260045260246000fd5b7f4e487b7100000000000000000000000000000000000000000000000000000000600052603260045260246000fd5b7f4e487b7100000000000000000000000000000000000000000000000000000000600052604160045260246000fd5b600080fd5b600080fd5b600080fd5b600080fd5b600080fd5b600080fd5b600080fd5b6000601f19601f8301169050919050565b7f43616d706169676e20646f6573206e6f74206578697374000000000000000000600082015250565b7f4f6e6c792073797374656d20636f6e74726163742063616e2063616c6c20746860008201527f69732066756e6374696f6e000000000000000000000000000000000000000000602082015250565b7f5573657220646f6573206e6f7420657869737400000000000000000000000000600082015250565b7f6e6f742061646d696e0000000000000000000000000000000000000000000000600082015250565b7f646f6e61746564203c2072657175697265640000000000000000000000000000600082015250565b7f646f6e6174696f6e20636f6d706c657465000000000000000000000000000000600082015250565b613a6481613686565b8114613a6f57600080fd5b50565b613a7b816136d6565b8114613a8657600080fd5b50565b613a92816136e0565b8114613a9d57600080fd5b50565b613aa9816136f4565b8114613ab457600080fd5b5056fea26469706673582212202aa6fa01e292c61852a9377faf706ea5f8bfea3e78b116f8a309acd2fb073c2764736f6c63430008070033",
  "linkReferences": {},
  "deployedLinkReferences": {}
}